:020000040800F2
:1000000000800120ED070008750700087B07000845
:1000100081070008870700088D070008000000001E
:10002000000000000000000000000000930700082E
:10003000A107000800000000AF070008BD07000886
:100040003D0800083D0800083D0800083D0800087C
:100050003D0800083D0800083D0800083D0800086C
:100060003D0800083D0800083D0800083D0800085C
:100070003D0800083D0800083D0800083D0800084C
:100080003D0800083D0800083D0800080000000089
:100090000000000000000000000000003D08000813
:1000A0003D0800083D0800083D0800083D0800081C
:1000B0003D0800083D0800083D0800083D0800080C
:1000C0003D0800083D0800083D0800083D080008FC
:1000D0003D0800083D0800083D0800080000000039
:1000E0003D0800083D0800083D0800080000000029
:1000F0000000000000000000000000003D080008B3
:10010000000000003D0800083D0800083D08000808
:1001100000000000000000000000000000000000DF
:100120003D0800083D0800083D0800083D0800089B
:100130003D08000800000000000000000000000072
:100140000000000000000000000000003D08000862
:100150003D0800083D0800083D0800083D0800086B
:100160003D0800083D0800080000000000000000F5
:10017000000000000000000000000000000000007F
:10018000000000003D080008000000000000000022
:040190003D0800081E
:1001940010B5054C237833B9044B13B10448AFF3BD
:1001A40000800123237010BD0C000020000000001B
:1001B4003817000808B5034B1BB103490348AFF3D4
:1001C400008008BD0000000010000020381700085F
:1001D40053B94AB9002908BF00281CBF4FF0FF31AA
:1001E4004FF0FF3000F06EB9ADF1080C6DE904CEAC
:1001F40000F006F8DDF804E0DDE9022304B07047FE
:100204002DE9F047089D04468C46002B40F083807E
:100214008A42174647D9B2FA82F242B1C2F12000AB
:1002240024FA00F09140974040EA010C94404FEAD0
:100234001748230CBCFBF8F61FFA87FE08FB16C10F
:1002440043EA014306FB0EF1994209D9FB1806F172
:10025400FF3080F01981994240F21681023E3B44FE
:100264005B1AA4B2B3FBF8F008FB103344EA03446E
:1002740000FB0EFEA64509D93C1900F1FF3380F0BE
:100284000581A64540F2028102383C4440EA06401A
:10029400A4EB0E0400261DB1D4400023C5E900439D
:1002A4003146BDE8F08702B9FFDEB2FA82F2002AD5
:1002B40050D1CB1B4FEA174E1FFA87F80126B3FB28
:1002C400FEFC210C0EFB1C3341EA034108FB0CF33A
:1002D4008B4207D979180CF1FF3002D28B4200F21D
:1002E400E9808446C91AA3B2B1FBFEF00EFB1011DB
:1002F40043EA014408FB00F8A04507D93C1900F182
:10030400FF3302D2A04500F2D9801846A4EB0804BA
:1003140040EA0C40BFE78B4209D9002D00F0B180C0
:100324000026C5E9000130463146BDE8F087B3FA3E
:1003340083F6002E4AD18B4202D3824200F2B88067
:10034400841A61EB030101208C46002DA8D0C5E975
:10035400004CA5E7C2F1200320FA03F6974001FA06
:1003640002F04FEA174ED9403043030CB1FBFEF6BE
:100374001FFA87F80EFB161143EA014306FB08F146
:10038400994204FA02F409D9FB1806F1FF3C80F003
:100394008D80994240F28A80023E3B445B1A81B2CE
:1003A400B3FBFEF00EFB103341EA034100FB08F3FC
:1003B4008B4207D9791800F1FF3C73D28B4271D973
:1003C40002383944CB1A40EA064678E7C6F1200CD5
:1003D40003FA06F422FA0CF31C4320FA0CF701FA90
:1003E40006F34FEA144E21FA0CF11F433B0CB1FB08
:1003F400FEF91FFA84F80EFB191143EA014109FBC7
:1004040008FA8A4502FA06F200FA06F308D96118D6
:1004140009F1FF3048D28A4546D9A9F1020921449D
:10042400A1EB0A01BFB2B1FBFEF00EFB101147EACB
:10043400014700FB08F8B84507D9E71900F1FF3177
:100444002ED2B8452CD90238274440EA0940A7EBFC
:100454000807A0FB02894F45C64649461AD317D060
:100464005DB1B3EB0E0267EB010707FA0CFCF24037
:100474004CEA0202F740C5E9002700263146BDE8F0
:10048400F0872E4628460BE70646E9E61846FDE6C1
:100494004345E5D2B8EB020E69EB04010138DFE70E
:1004A4000846D2E760468DE78146B9E7664675E7B8
:1004B40030464AE7ACF1020C394413E702383C44B5
:1004C40024E700BF704700BF80B483B000AF7860FA
:1004D40039607B68002B00D1FEE77B683A685A607C
:1004E4007B6800221A7200BF0C37BD465DF8047B9E
:1004F400704780B584B000AF78600023FB737B68DD
:10050400002B00D1FEE77B681B7A83F00103DBB28A
:10051400002B08D000F0F8F902467B681A607B686B
:1005240001221A720EE000F0EFF902467B681B68A4
:10053400D21A7B685B689A4204D30123FB737B68FD
:1005440000221A72FB7B18461037BD4680BD00009E
:1005540080B500AF00F072F900F036F800F094F8BE
:1005640064211548FFF7B0FFC8211448FFF7ACFF1A
:100574004FF4C8711248FFF7A7FF0F48FFF7B9FF00
:100584000346002B03D004210E4800F078FC0B48EE
:10059400FFF7AFFF0346002B03D00821094800F002
:1005A4006EFC0748FFF7A5FF0346002BE5D010219A
:1005B400044800F064FCE0E7280000203400002038
:1005C400400000200000024080B594B000AF07F165
:1005D400200330220021184601F0A4F807F10C038F
:1005E40000221A605A609A60DA601A610023BB60C4
:1005F400234B1B6C224A43F080531364204B1B6C27
:1006040003F08053BB60BB6800237B601D4B1B68F9
:1006140023F440431B4A43F400431360194B1B6803
:1006240003F440437B607B6802233B620123FB624B
:1006340010233B630023BB6307F12003184600F03B
:1006440039FC0346002B01D000F064F80F23FB6053
:1006540000233B6100237B610023BB610023FB611A
:1006640007F10C030021184600F09CFE0346002B02
:1006740001D000F04FF800BF5037BD4680BD00BF29
:10068400003802400070004080B586B000AF3B1DCA
:1006940000221A605A609A60DA601A6100233B6093
:1006A4001A4B1B6B194A43F001031363174B1B6B63
:1006B40003F001033B603B6800221C21144800F056
:1006C400C5FB02237B604FF48813BB600023FB60EF
:1006D4003B1D19460E4800F035FA1C237B600123AC
:1006E400BB600023FB6000233B613B1D19460848A7
:1006F40000F028FA00220021072000F0ECF907207E
:1007040000F005FA00BF1837BD4680BD003802402E
:100714000000024080B400AF72B600BFFEE70000E4
:1007240080B483B000AF00237B60104B5B6C0F4A36
:1007340043F4804353640D4B5B6C03F480437B6050
:100744007B6800233B60094B1B6C084A43F08053D1
:100754001364064B1B6C03F080533B603B6800BF83
:100764000C37BD465DF8047B704700BF003802407B
:1007740080B400AFFEE780B400AFFEE780B400AF02
:10078400FEE780B400AFFEE780B400AFFEE780B4BC
:1007940000AF00BFBD465DF8047B704780B400AF76
:1007A40000BFBD465DF8047B704780B400AF00BF56
:1007B400BD465DF8047B704780B500AF00F090F84B
:1007C40000BF80BD80B400AF064BD3F88830054A23
:1007D40043F47003C2F8883000BFBD465DF8047B63
:1007E400704700BF00ED00E0DFF834D00D480E493B
:1007F4000E4A002302E0D458C4500433C4188C4277
:10080400F9D30B4A0B4C002301E013600432A242DB
:10081400FBD3FFF7D7FF00F061FFFFF799FE7047A6
:1008240000800120000000200C0000207017000848
:100834000C00002050000020FEE7000080B500AF4F
:100844000E4B1B680D4A43F4007313600B4B1B687B
:100854000A4A43F480631360084B1B68074A43F455
:1008640080731360032000F02BF90F2000F008F8C8
:10087400FFF756FF0023184680BD00BF003C02402E
:1008840080B582B000AF7860124B1A68124B1B78A7
:1008940019464FF47A73B3FBF1F3B2FBF3F3184642
:1008A40000F043F90346002B01D001230EE07B68DE
:1008B4000F2B0AD8002279684FF0FF3000F00BF9B3
:1008C400064A7B681360002300E0012318460837BA
:1008D400BD4680BD00000020080000200400002068
:1008E40080B400AF064B1B781A46064B1B681344B2
:1008F400044A136000BFBD465DF8047B704700BF27
:10090400080000204C00002080B400AF034B1B689B
:100914001846BD465DF8047B704700BF4C000020BC
:1009240080B485B000AF78607B6803F00703FB6098
:100934000C4BDB68BB60BA684FF6FF031340BB6027
:10094400FB681A02BB68134343F0BF6343F40033EC
:10095400BB60044ABB68D36000BF1437BD465DF872
:10096400047B704700ED00E080B400AF044BDB680B
:100974001B0A03F007031846BD465DF8047B704765
:1009840000ED00E080B483B000AF0346FB7197F93B
:100994000730002B0BDBFB7903F01F02074997F9A3
:1009A40007305B09012000FA02F241F8232000BF5E
:1009B4000C37BD465DF8047B704700BF00E100E0E2
:1009C40080B483B000AF03463960FB7197F90730F8
:1009D400002B0ADB3B68DAB20C4997F907301201A5
:1009E400D2B20B4483F800230AE03B68DAB2084928
:1009F400FB7903F00F03043B1201D2B20B441A76C5
:100A040000BF0C37BD465DF8047B704700E100E091
:100A140000ED00E080B489B000AFF860B9607A609E
:100A2400FB6803F00703FB61FB69C3F10703042BB5
:100A340028BF0423BB61FB690433062B02D9FB697D
:100A4400033B00E000237B614FF0FF32BB6902FAF5
:100A540003F3DA43BB681A407B699A404FF0FF31D5
:100A64007B6901FA03F3D9437B680B4013431846AF
:100A74002437BD465DF8047B7047000080B582B022
:100A840000AF78607B68013BB3F1807F01D3012321
:100A94000FE00A4A7B68013B53600F214FF0FF309F
:100AA400FFF78EFF054B00229A60044B07221A6061
:100AB400002318460837BD4680BD00BF10E000E0A3
:100AC40080B582B000AF78607868FFF729FF00BF77
:100AD4000837BD4680BD80B586B000AF0346B96017
:100AE4007A60FB7300237B61FFF73EFF78617A68CD
:100AF400B9687869FFF78EFF024697F90F301146FF
:100B04001846FFF75DFF00BF1837BD4680BD80B5AE
:100B140082B000AF0346FB7197F907301846FFF720
:100B240031FF00BF0837BD4680BD80B582B000AF3D
:100B340078607868FFF7A2FF034618460837BD4679
:100B440080BD000080B489B000AF786039600023B4
:100B54007B6100233B610023BB610023FB6159E1FE
:100B64000122FB6902FA03F37B613B681B687A6923
:100B740013403B613A697B699A4240F048813B6883
:100B84005B6803F00303012B05D03B685B6803F04B
:100B94000303022B30D17B689B68BB61FB695B005C
:100BA400032202FA03F3DB43BA691340BB613B68D7
:100BB400DA68FB695B0002FA03F3BA691343BB61A9
:100BC4007B68BA699A607B685B68BB610122FB69D8
:100BD40002FA03F3DB43BA691340BB613B685B6809
:100BE4001B0903F00102FB6902FA03F3BA69134318
:100BF400BB617B68BA695A603B685B6803F00303B6
:100C0400032B17D07B68DB68BB61FB695B000322A5
:100C140002FA03F3DB43BA691340BB613B689A6889
:100C2400FB695B0002FA03F3BA691343BB617B6897
:100C3400BA69DA603B685B6803F00303022B23D1D3
:100C4400FB69DA087B68083253F82230BB61FB6920
:100C540003F007039B000F2202FA03F3DB43BA6994
:100C64001340BB613B681A69FB6903F007039B00EF
:100C740002FA03F3BA691343BB61FB69DA087B68C0
:100C84000832B96943F822107B681B68BB61FB69B1
:100C94005B00032202FA03F3DB43BA691340BB612E
:100CA4003B685B6803F00302FB695B0002FA03F331
:100CB400BA691343BB617B68BA691A603B685B68B5
:100CC40003F44033002B00F0A2800023FB60574B59
:100CD4005B6C564A43F480435364544B5B6C03F49B
:100CE4008043FB60FB68524AFB699B08023352F85D
:100CF4002330BB61FB6903F003039B000F2202FA5C
:100D040003F3DB43BA691340BB617B68494A9342EE
:100D140019D07B68484A934213D07B68474A934270
:100D24000DD07B68464A934207D07B68454A93427C
:100D340001D1042308E0072306E0032304E002238F
:100D440002E0012300E00023FA6902F003029200AA
:100D54009340BA691343BB613549FB699B0802336D
:100D6400BA6941F82320384B1B68BB613B69DB43FC
:100D7400BA691340BB613B685B6803F48033002BA2
:100D840003D0BA693B691343BB612F4ABB69136043
:100D94002D4B5B68BB613B69DB43BA691340BB61A4
:100DA4003B685B6803F40033002B03D0BA693B69EA
:100DB4001343BB61244ABB695360234B9B68BB61EB
:100DC4003B69DB43BA691340BB613B685B6803F46E
:100DD4008013002B03D0BA693B691343BB611A4AE1
:100DE400BB699360184BDB68BB613B69DB43BA6941
:100DF4001340BB613B685B6803F40013002B03D012
:100E0400BA693B691343BB610F4ABB69D360FB6991
:100E14000133FB61FB690F2B7FF6A2AE00BF00BF5D
:100E24002437BD465DF8047B704700BF003802409C
:100E34000038014000000240000402400008024063
:100E4400000C024000100240003C014080B483B01A
:100E540000AF78600B467B8013467B707B78002B59
:100E640003D07A887B689A6103E07B881A047B68E4
:100E74009A6100BF0C37BD465DF8047B704780B4AF
:100E840085B000AF78600B467B807B685B69FB6054
:100E94007A88FB6813401A04FB68D9437B880B40AB
:100EA4001A437B689A6100BF1437BD465DF8047B22
:100EB4007047000080B586B000AF78607B68002B77
:100EC40001D1012364E27B681B6803F00103002B5A
:100ED40075D0A34B9B6803F00C03042B0CD0A04BE0
:100EE4009B6803F00C03082B12D19D4B5B6803F441
:100EF4008003B3F5800F0BD1994B1B6803F40033C7
:100F0400002B5BD07B685B68002B57D101233FE249
:100F14007B685B68B3F5803F06D1914B1B68904AB0
:100F240043F4803313601DE07B685B68B3F5A02F46
:100F34000CD18B4B1B688A4A43F480231360884B83
:100F44001B68874A43F4803313600BE0844B1B68AF
:100F5400834A23F480331360814B1B68804A23F453
:100F6400802313607B685B68002B13D0FFF7CCFCF5
:100F7400386108E0FFF7C8FC02463B69D31A642BCA
:100F840001D9032304E2764B1B6803F40033002BDE
:100F9400F0D014E0FFF7B8FC386108E0FFF7B4FCC8
:100FA40002463B69D31A642B01D90323F0E16C4B4D
:100FB4001B6803F40033002BF0D100E000BF7B6812
:100FC4001B6803F00203002B63D0654B9B6803F09E
:100FD4000C03002B0BD0624B9B6803F00C03082B13
:100FE4001CD15F4B5B6803F48003002B16D15C4B70
:100FF4001B6803F00203002B05D07B68DB68012B20
:1010040001D00123C4E1564B1B6823F0F8027B682E
:101014001B69DB00524913430B603AE07B68DB68D1
:10102400002B20D04F4B01221A60FFF76DFC386172
:1010340008E0FFF769FC02463B69D31A022B01D989
:101044000323A5E1464B1B6803F00203002BF0D0F9
:10105400434B1B6823F0F8027B681B69DB004049A3
:1010640013430B6015E03F4B00221A60FFF74CFC62
:10107400386108E0FFF748FC02463B69D31A022BAB
:1010840001D9032384E1364B1B6803F00203002BD0
:10109400F0D17B681B6803F00803002B30D07B6819
:1010A4005B69002B16D0304B01221A60FFF72CFC31
:1010B400386108E0FFF728FC02463B69D31A022B8B
:1010C40001D9032364E1264B5B6F03F00203002B79
:1010D400F0D015E0244B00221A60FFF715FC3861AC
:1010E40008E0FFF711FC02463B69D31A022B01D931
:1010F40003234DE11A4B5B6F03F00203002BF0D185
:101104007B681B6803F00403002B00F0A08000231D
:10111400FB75134B1B6C03F08053002B0FD1002382
:10112400BB600F4B1B6C0E4A43F0805313640C4B93
:101134001B6C03F08053BB60BB680123FB750B4B36
:101144001B6803F48073002B21D1084B1B68074AEA
:1011540043F480731360FFF7D7FB386111E000BFDD
:101164000038024000004742800E474200700040B1
:10117400FFF7CAFB02463B69D31A022B01D90323AA
:1011840006E1854B1B6803F48073002BF0D07B6869
:101194009B68012B06D1814B1B6F804A43F00103EE
:1011A40013671CE07B689B68052B0CD17B4B1B6F82
:1011B4007A4A43F004031367784B1B6F774A43F072
:1011C400010313670BE0754B1B6F744A23F0010393
:1011D4001367724B1B6F714A23F0040313677B6818
:1011E4009B68002B15D0FFF78FFB38610AE0FFF7EF
:1011F4008BFB02463B69D31A41F28832934201D9F0
:101204000323C5E0654B1B6F03F00203002BEED0F4
:1012140014E0FFF779FB38610AE0FFF775FB02463B
:101224003B69D31A41F28832934201D90323AFE0D8
:101234005A4B1B6F03F00203002BEED1FB7D012BF5
:1012440005D1564B1B6C554A23F0805313647B68BD
:101254009B69002B00F09B80504B9B6803F00C03B0
:10126400082B5CD07B689B69022B41D14C4B00223C
:101274001A60FFF749FB386108E0FFF745FB0246B7
:101284003B69D31A022B01D9032381E0434B1B682A
:1012940003F00073002BF0D17B68DA697B681B6A6A
:1012A4001A437B685B6A9B011A437B689B6A5B08F1
:1012B400013B1B041A437B68DB6A1B063749134353
:1012C4004B60374B01221A60FFF71EFB386108E0C0
:1012D400FFF71AFB02463B69D31A022B01D90323F9
:1012E40056E02E4B1B6803F00073002BF0D04EE049
:1012F4002B4B00221A60FFF707FB386108E0FFF769
:1013040003FB02463B69D31A022B01D903233FE0B6
:10131400224B1B6803F00073002BF0D137E07B688D
:101324009B69012B01D1012332E01C4B5B68FB60FC
:101334007B689B69012B28D0FB6803F480027B68DF
:10134400DB699A4221D1FB6803F03F027B681B6A88
:101354009A421AD1FA6847F6C07313407A68526AFF
:101364009201934211D1FB6803F440327B689B6A7B
:101374005B08013B1B049A4207D1FB6803F07062CF
:101384007B68DB6A1B069A4201D0012300E000233C
:1013940018461837BD4680BD007000400038024032
:1013A4006000474280B584B000AF786039607B68E4
:1013B400002B01D10123CCE0684B1B6803F0070329
:1013C4003A689A420CD9654B3A68D2B21A70634BA8
:1013D4001B6803F007033A689A4201D00123B8E07E
:1013E4007B681B6803F00203002B20D07B681B681A
:1013F40003F00403002B05D0594B9B68584A43F46F
:10140400E05393607B681B6803F00803002B05D04E
:10141400534B9B68524A43F460439360504B9B6820
:1014240023F0F0027B689B684D4913438B607B6813
:101434001B6803F00103002B44D07B685B68012B1D
:1014440007D1474B1B6803F40033002B19D1012348
:101454007FE07B685B68022B03D07B685B68032BAF
:1014640007D13F4B1B6803F00073002B09D1012304
:101474006FE03B4B1B6803F00203002B01D10123F7
:1014840067E0374B9B6823F003027B685B68344951
:1014940013438B60FFF738FAF8600AE0FFF734FA79
:1014A4000246FB68D31A41F28832934201D90323DE
:1014B4004FE02B4B9B6803F00C027B685B689B003E
:1014C4009A42EBD1254B1B6803F007033A689A4212
:1014D4000CD2224B3A68D2B21A70204B1B6803F02C
:1014E40007033A689A4201D0012332E07B681B6803
:1014F40003F00403002B08D0194B9B6823F4E0523B
:101504007B68DB68164913438B607B681B6803F0B8
:101514000803002B09D0124B9B6823F460427B68BC
:101524001B69DB000E4913438B6000F021F802466F
:101534000B4B9B681B0903F00F030A49CB5C22FA8F
:1015440003F3094A1360094B1B681846FFF798F91F
:10155400002318461037BD4680BD00BF003C024042
:10156400003802405017000800000020040000204A
:10157400B0B584B000AF002179600021F96000218A
:1015840039600021B9605249896801F00C010829C9
:101594000DD0082900F29480002902D0042903D038
:1015A4008EE04C4BBB608EE04B4BBB608BE04849FC
:1015B400496801F03F0179604549496801F48001B7
:1015C400002924D042494968890908464FF000019E
:1015D40040F2FF144FF0000500EA040201EA05039B
:1015E4003D4901FB03F0002101FB02F144183A4993
:1015F400A2FB0101631819467B681A464FF00003E9
:10160400FEF7E6FD02460B461346FB604AE0304B0C
:101614005B689B091A464FF0000340F2FF104FF03D
:10162400000102EA000403EA0105204629464FF0BE
:1016340000024FF000034B0143EAD063420110461D
:101644001946001B61EB05014FF000024FF0000347
:101654008B0143EA90638201121A63EB01034FF09A
:1016640000004FF00001D90041EA5271D000024657
:101674000B46121945EB03034FF000004FF0000135
:10168400990241EA9251900202460B4610461946CD
:101694007B681A464FF00003FEF79AFD02460B469C
:1016A4001346FB600A4B5B681B0C03F00303013316
:1016B4005B003B60FA683B68B2FBF3F3BB6002E09B
:1016C400044BBB6000BFBB6818461037BD46B0BDB5
:1016D400003802400024F40040787D0170B50D4DBF
:1016E4000D4C641BA4100026A64209D10B4D0C4CD2
:1016F40000F020F8641BA4100026A64205D170BD9A
:1017040055F8043B98470136EEE755F8043B9847F3
:101714000136F2E768170008681700086817000820
:101724006C17000802440346934200D1704703F843
:10173400011BF9E7F8B500BFF8BC08BC9E4670472A
:0C174400F8B500BFF8BC08BC9E4670471A
:101750000000000000000000010203040607080961
:08176000A4EAFF7F0100000074
:04176800B9010008BB
:04176C0095010008DB
:0C1770000024F400100000000100000044
:04000005080007EDFB
:00000001FF
